{
  "_format": "hh-sol-artifact-1",
  "contractName": "BuyMyRoom",
  "sourceName": "contracts/BuyMyRoom.sol",
  "abi": [
    {
      "inputs": [],
      "stateMutability": "nonpayable",
      "type": "constructor"
    },
    {
      "inputs": [
        {
          "internalType": "address",
          "name": "sender",
          "type": "address"
        },
        {
          "internalType": "uint256",
          "name": "tokenId",
          "type": "uint256"
        },
        {
          "internalType": "address",
          "name": "owner",
          "type": "address"
        }
      ],
      "name": "ERC721IncorrectOwner",
      "type": "error"
    },
    {
      "inputs": [
        {
          "internalType": "address",
          "name": "operator",
          "type": "address"
        },
        {
          "internalType": "uint256",
          "name": "tokenId",
          "type": "uint256"
        }
      ],
      "name": "ERC721InsufficientApproval",
      "type": "error"
    },
    {
      "inputs": [
        {
          "internalType": "address",
          "name": "approver",
          "type": "address"
        }
      ],
      "name": "ERC721InvalidApprover",
      "type": "error"
    },
    {
      "inputs": [
        {
          "internalType": "address",
          "name": "operator",
          "type": "address"
        }
      ],
      "name": "ERC721InvalidOperator",
      "type": "error"
    },
    {
      "inputs": [
        {
          "internalType": "address",
          "name": "owner",
          "type": "address"
        }
      ],
      "name": "ERC721InvalidOwner",
      "type": "error"
    },
    {
      "inputs": [
        {
          "internalType": "address",
          "name": "receiver",
          "type": "address"
        }
      ],
      "name": "ERC721InvalidReceiver",
      "type": "error"
    },
    {
      "inputs": [
        {
          "internalType": "address",
          "name": "sender",
          "type": "address"
        }
      ],
      "name": "ERC721InvalidSender",
      "type": "error"
    },
    {
      "inputs": [
        {
          "internalType": "uint256",
          "name": "tokenId",
          "type": "uint256"
        }
      ],
      "name": "ERC721NonexistentToken",
      "type": "error"
    },
    {
      "anonymous": false,
      "inputs": [
        {
          "indexed": true,
          "internalType": "address",
          "name": "owner",
          "type": "address"
        },
        {
          "indexed": true,
          "internalType": "address",
          "name": "approved",
          "type": "address"
        },
        {
          "indexed": true,
          "internalType": "uint256",
          "name": "tokenId",
          "type": "uint256"
        }
      ],
      "name": "Approval",
      "type": "event"
    },
    {
      "anonymous": false,
      "inputs": [
        {
          "indexed": true,
          "internalType": "address",
          "name": "owner",
          "type": "address"
        },
        {
          "indexed": true,
          "internalType": "address",
          "name": "operator",
          "type": "address"
        },
        {
          "indexed": false,
          "internalType": "bool",
          "name": "approved",
          "type": "bool"
        }
      ],
      "name": "ApprovalForAll",
      "type": "event"
    },
    {
      "anonymous": false,
      "inputs": [
        {
          "indexed": false,
          "internalType": "uint256",
          "name": "tokenId",
          "type": "uint256"
        },
        {
          "indexed": false,
          "internalType": "uint256",
          "name": "price",
          "type": "uint256"
        },
        {
          "indexed": false,
          "internalType": "address",
          "name": "owner",
          "type": "address"
        }
      ],
      "name": "HouseListed",
      "type": "event"
    },
    {
      "anonymous": false,
      "inputs": [
        {
          "indexed": true,
          "internalType": "address",
          "name": "from",
          "type": "address"
        },
        {
          "indexed": true,
          "internalType": "address",
          "name": "to",
          "type": "address"
        },
        {
          "indexed": true,
          "internalType": "uint256",
          "name": "tokenId",
          "type": "uint256"
        }
      ],
      "name": "Transfer",
      "type": "event"
    },
    {
      "inputs": [
        {
          "internalType": "address",
          "name": "to",
          "type": "address"
        },
        {
          "internalType": "uint256",
          "name": "tokenId",
          "type": "uint256"
        }
      ],
      "name": "approve",
      "outputs": [],
      "stateMutability": "nonpayable",
      "type": "function"
    },
    {
      "inputs": [
        {
          "internalType": "address",
          "name": "owner",
          "type": "address"
        }
      ],
      "name": "balanceOf",
      "outputs": [
        {
          "internalType": "uint256",
          "name": "",
          "type": "uint256"
        }
      ],
      "stateMutability": "view",
      "type": "function"
    },
    {
      "inputs": [
        {
          "internalType": "uint256",
          "name": "id",
          "type": "uint256"
        }
      ],
      "name": "buy",
      "outputs": [],
      "stateMutability": "nonpayable",
      "type": "function"
    },
    {
      "inputs": [
        {
          "internalType": "uint256",
          "name": "tokenId",
          "type": "uint256"
        }
      ],
      "name": "getApproved",
      "outputs": [
        {
          "internalType": "address",
          "name": "",
          "type": "address"
        }
      ],
      "stateMutability": "view",
      "type": "function"
    },
    {
      "inputs": [
        {
          "internalType": "string",
          "name": "account",
          "type": "string"
        }
      ],
      "name": "get_my_houses",
      "outputs": [
        {
          "components": [
            {
              "internalType": "uint256",
              "name": "id",
              "type": "uint256"
            },
            {
              "internalType": "string",
              "name": "owner",
              "type": "string"
            },
            {
              "internalType": "uint256",
              "name": "listedTimestamp",
              "type": "uint256"
            },
            {
              "internalType": "uint256",
              "name": "price",
              "type": "uint256"
            },
            {
              "internalType": "bool",
              "name": "selling",
              "type": "bool"
            }
          ],
          "internalType": "struct BuyMyRoom.House[]",
          "name": "",
          "type": "tuple[]"
        }
      ],
      "stateMutability": "view",
      "type": "function"
    },
    {
      "inputs": [],
      "name": "get_selling_houses",
      "outputs": [
        {
          "components": [
            {
              "internalType": "uint256",
              "name": "id",
              "type": "uint256"
            },
            {
              "internalType": "string",
              "name": "owner",
              "type": "string"
            },
            {
              "internalType": "uint256",
              "name": "listedTimestamp",
              "type": "uint256"
            },
            {
              "internalType": "uint256",
              "name": "price",
              "type": "uint256"
            },
            {
              "internalType": "bool",
              "name": "selling",
              "type": "bool"
            }
          ],
          "internalType": "struct BuyMyRoom.House[]",
          "name": "",
          "type": "tuple[]"
        }
      ],
      "stateMutability": "view",
      "type": "function"
    },
    {
      "inputs": [],
      "name": "helloworld",
      "outputs": [
        {
          "internalType": "string",
          "name": "",
          "type": "string"
        }
      ],
      "stateMutability": "pure",
      "type": "function"
    },
    {
      "inputs": [
        {
          "internalType": "uint256",
          "name": "",
          "type": "uint256"
        }
      ],
      "name": "houses",
      "outputs": [
        {
          "internalType": "uint256",
          "name": "id",
          "type": "uint256"
        },
        {
          "internalType": "string",
          "name": "owner",
          "type": "string"
        },
        {
          "internalType": "uint256",
          "name": "listedTimestamp",
          "type": "uint256"
        },
        {
          "internalType": "uint256",
          "name": "price",
          "type": "uint256"
        },
        {
          "internalType": "bool",
          "name": "selling",
          "type": "bool"
        }
      ],
      "stateMutability": "view",
      "type": "function"
    },
    {
      "inputs": [
        {
          "internalType": "address",
          "name": "owner",
          "type": "address"
        },
        {
          "internalType": "address",
          "name": "operator",
          "type": "address"
        }
      ],
      "name": "isApprovedForAll",
      "outputs": [
        {
          "internalType": "bool",
          "name": "",
          "type": "bool"
        }
      ],
      "stateMutability": "view",
      "type": "function"
    },
    {
      "inputs": [],
      "name": "manager",
      "outputs": [
        {
          "internalType": "address",
          "name": "",
          "type": "address"
        }
      ],
      "stateMutability": "view",
      "type": "function"
    },
    {
      "inputs": [],
      "name": "myERC20",
      "outputs": [
        {
          "internalType": "contract MyERC20",
          "name": "",
          "type": "address"
        }
      ],
      "stateMutability": "view",
      "type": "function"
    },
    {
      "inputs": [],
      "name": "name",
      "outputs": [
        {
          "internalType": "string",
          "name": "",
          "type": "string"
        }
      ],
      "stateMutability": "view",
      "type": "function"
    },
    {
      "inputs": [
        {
          "internalType": "uint256",
          "name": "_price",
          "type": "uint256"
        }
      ],
      "name": "new_house",
      "outputs": [],
      "stateMutability": "nonpayable",
      "type": "function"
    },
    {
      "inputs": [
        {
          "internalType": "uint256",
          "name": "tokenId",
          "type": "uint256"
        }
      ],
      "name": "ownerOf",
      "outputs": [
        {
          "internalType": "address",
          "name": "",
          "type": "address"
        }
      ],
      "stateMutability": "view",
      "type": "function"
    },
    {
      "inputs": [
        {
          "internalType": "address",
          "name": "from",
          "type": "address"
        },
        {
          "internalType": "address",
          "name": "to",
          "type": "address"
        },
        {
          "internalType": "uint256",
          "name": "tokenId",
          "type": "uint256"
        }
      ],
      "name": "safeTransferFrom",
      "outputs": [],
      "stateMutability": "nonpayable",
      "type": "function"
    },
    {
      "inputs": [
        {
          "internalType": "address",
          "name": "from",
          "type": "address"
        },
        {
          "internalType": "address",
          "name": "to",
          "type": "address"
        },
        {
          "internalType": "uint256",
          "name": "tokenId",
          "type": "uint256"
        },
        {
          "internalType": "bytes",
          "name": "data",
          "type": "bytes"
        }
      ],
      "name": "safeTransferFrom",
      "outputs": [],
      "stateMutability": "nonpayable",
      "type": "function"
    },
    {
      "inputs": [
        {
          "internalType": "uint256",
          "name": "id",
          "type": "uint256"
        },
        {
          "internalType": "uint256",
          "name": "_price",
          "type": "uint256"
        }
      ],
      "name": "selling",
      "outputs": [],
      "stateMutability": "nonpayable",
      "type": "function"
    },
    {
      "inputs": [
        {
          "internalType": "address",
          "name": "operator",
          "type": "address"
        },
        {
          "internalType": "bool",
          "name": "approved",
          "type": "bool"
        }
      ],
      "name": "setApprovalForAll",
      "outputs": [],
      "stateMutability": "nonpayable",
      "type": "function"
    },
    {
      "inputs": [
        {
          "internalType": "bytes4",
          "name": "interfaceId",
          "type": "bytes4"
        }
      ],
      "name": "supportsInterface",
      "outputs": [
        {
          "internalType": "bool",
          "name": "",
          "type": "bool"
        }
      ],
      "stateMutability": "view",
      "type": "function"
    },
    {
      "inputs": [],
      "name": "symbol",
      "outputs": [
        {
          "internalType": "string",
          "name": "",
          "type": "string"
        }
      ],
      "stateMutability": "view",
      "type": "function"
    },
    {
      "inputs": [
        {
          "internalType": "address",
          "name": "account",
          "type": "address"
        }
      ],
      "name": "toString",
      "outputs": [
        {
          "internalType": "string",
          "name": "",
          "type": "string"
        }
      ],
      "stateMutability": "pure",
      "type": "function"
    },
    {
      "inputs": [
        {
          "internalType": "bytes",
          "name": "data",
          "type": "bytes"
        }
      ],
      "name": "toString",
      "outputs": [
        {
          "internalType": "string",
          "name": "",
          "type": "string"
        }
      ],
      "stateMutability": "pure",
      "type": "function"
    },
    {
      "inputs": [
        {
          "internalType": "uint256",
          "name": "tokenId",
          "type": "uint256"
        }
      ],
      "name": "tokenURI",
      "outputs": [
        {
          "internalType": "string",
          "name": "",
          "type": "string"
        }
      ],
      "stateMutability": "view",
      "type": "function"
    },
    {
      "inputs": [
        {
          "internalType": "address",
          "name": "from",
          "type": "address"
        },
        {
          "internalType": "address",
          "name": "to",
          "type": "address"
        },
        {
          "internalType": "uint256",
          "name": "tokenId",
          "type": "uint256"
        }
      ],
      "name": "transferFrom",
      "outputs": [],
      "stateMutability": "nonpayable",
      "type": "function"
    }
  ],
  "bytecode": "0x60806040523480156200001157600080fd5b506040518060400160405280600581526020017f686f7573650000000000000000000000000000000000000000000000000000008152506040518060400160405280600281526020017f686800000000000000000000000000000000000000000000000000000000000081525081600090816200008f9190620003f2565b508060019081620000a19190620003f2565b50505033600760006101000a81548173ffffffffffffffffffffffffffffffffffffffff021916908373ffffffffffffffffffffffffffffffffffffffff1602179055506000600881905550604051620000fb906200016a565b62000106906200058a565b604051809103906000f08015801562000123573d6000803e3d6000fd5b50600960006101000a81548173ffffffffffffffffffffffffffffffffffffffff021916908373ffffffffffffffffffffffffffffffffffffffff160217905550620005c1565b6115af80620038c783390190565b600081519050919050565b7f4e487b7100000000000000000000000000000000000000000000000000000000600052604160045260246000fd5b7f4e487b7100000000000000000000000000000000000000000000000000000000600052602260045260246000fd5b60006002820490506001821680620001fa57607f821691505b60208210810362000210576200020f620001b2565b5b50919050565b60008190508160005260206000209050919050565b60006020601f8301049050919050565b600082821b905092915050565b6000600883026200027a7fffffffffffffffffffffffffffffffffffffffffffffffffffffffffffffffff826200023b565b6200028686836200023b565b95508019841693508086168417925050509392505050565b6000819050919050565b6000819050919050565b6000620002d3620002cd620002c7846200029e565b620002a8565b6200029e565b9050919050565b6000819050919050565b620002ef83620002b2565b62000307620002fe82620002da565b84845462000248565b825550505050565b600090565b6200031e6200030f565b6200032b818484620002e4565b505050565b5b8181101562000353576200034760008262000314565b60018101905062000331565b5050565b601f821115620003a2576200036c8162000216565b62000377846200022b565b8101602085101562000387578190505b6200039f62000396856200022b565b83018262000330565b50505b505050565b600082821c905092915050565b6000620003c760001984600802620003a7565b1980831691505092915050565b6000620003e28383620003b4565b9150826002028217905092915050565b620003fd8262000178565b67ffffffffffffffff81111562000419576200041862000183565b5b620004258254620001e1565b6200043282828562000357565b600060209050601f8311600181146200046a576000841562000455578287015190505b620004618582620003d4565b865550620004d1565b601f1984166200047a8662000216565b60005b82811015620004a4578489015182556001820191506020850194506020810190506200047d565b86831015620004c45784890151620004c0601f891682620003b4565b8355505b6001600288020188555050505b505050505050565b600082825260208201905092915050565b7f486f757365546f6b656e00000000000000000000000000000000000000000000600082015250565b600062000522600a83620004d9565b91506200052f82620004ea565b602082019050919050565b7f486f757365546f6b656e53796d626f6c00000000000000000000000000000000600082015250565b600062000572601083620004d9565b91506200057f826200053a565b602082019050919050565b60006040820190508181036000830152620005a58162000513565b90508181036020830152620005ba8162000563565b9050919050565b6132f680620005d16000396000f3fe608060405234801561001057600080fd5b50600436106101585760003560e01c80636d3739c4116100c3578063a22cb4651161007c578063a22cb465146103ed578063aeda852f14610409578063b88d4fde1461043d578063c87b56dd14610459578063d96a094a14610489578063e985e9c5146104a557610158565b80636d3739c41461030557806370a082311461032357806371aad10d14610353578063726bddfd1461038357806395d89b411461039f57806397767d4c146103bd57610158565b80632f2f4859116101155780632f2f48591461022f57806342842e0e1461024d578063481c6a751461026957806356ca623e146102875780636352211e146102b757806365d6dee0146102e757610158565b806301ffc9a71461015d57806306fdde031461018d578063081812fc146101ab578063095ea7b3146101db5780631d410528146101f757806323b872dd14610213575b600080fd5b61017760048036038101906101729190612293565b6104d5565b60405161018491906122db565b60405180910390f35b6101956105b7565b6040516101a29190612386565b60405180910390f35b6101c560048036038101906101c091906123de565b610649565b6040516101d2919061244c565b60405180910390f35b6101f560048036038101906101f09190612493565b610665565b005b610211600480360381019061020c91906123de565b61067b565b005b61022d600480360381019061022891906124d3565b61074e565b005b610237610850565b6040516102449190612386565b60405180910390f35b610267600480360381019061026291906124d3565b61088d565b005b6102716108ad565b60405161027e919061244c565b60405180910390f35b6102a1600480360381019061029c9190612526565b6108d3565b6040516102ae9190612386565b60405180910390f35b6102d160048036038101906102cc91906123de565b610904565b6040516102de919061244c565b60405180910390f35b6102ef610916565b6040516102fc91906126f3565b60405180910390f35b61030d610be5565b60405161031a9190612774565b60405180910390f35b61033d60048036038101906103389190612526565b610c0b565b60405161034a919061279e565b60405180910390f35b61036d600480360381019061036891906128ee565b610cc5565b60405161037a9190612386565b60405180910390f35b61039d60048036038101906103989190612937565b610fbf565b005b6103a7611028565b6040516103b49190612386565b60405180910390f35b6103d760048036038101906103d29190612a18565b6110ba565b6040516103e491906126f3565b60405180910390f35b61040760048036038101906104029190612a8d565b611355565b005b610423600480360381019061041e91906123de565b61136b565b604051610434959493929190612acd565b60405180910390f35b61045760048036038101906104529190612b27565b611436565b005b610473600480360381019061046e91906123de565b611453565b6040516104809190612386565b60405180910390f35b6104a3600480360381019061049e91906123de565b6114bc565b005b6104bf60048036038101906104ba9190612baa565b61151a565b6040516104cc91906122db565b60405180910390f35b60007f80ac58cd000000000000000000000000000000000000000000000000000000007bffffffffffffffffffffffffffffffffffffffffffffffffffffffff1916827bffffffffffffffffffffffffffffffffffffffffffffffffffffffff191614806105a057507f5b5e139f000000000000000000000000000000000000000000000000000000007bffffffffffffffffffffffffffffffffffffffffffffffffffffffff1916827bffffffffffffffffffffffffffffffffffffffffffffffffffffffff1916145b806105b057506105af826115ae565b5b9050919050565b6060600080546105c690612c19565b80601f01602080910402602001604051908101604052809291908181526020018280546105f290612c19565b801561063f5780601f106106145761010080835404028352916020019161063f565b820191906000526020600020905b81548152906001019060200180831161062257829003601f168201915b5050505050905090565b600061065482611618565b5061065e826116a0565b9050919050565b61067782826106726116dd565b6116e5565b5050565b600060066000600854815260200190815260200160002060040160006101000a81548160ff0219169083151502179055506106b5336108d3565b60066000600854815260200190815260200160002060010190816106d99190612dec565b5042600660006008548152602001908152602001600020600201819055508060066000600854815260200190815260200160002060030181905550600854600660006008548152602001908152602001600020600001819055506008600081548092919061074690612eed565b919050555050565b600073ffffffffffffffffffffffffffffffffffffffff168273ffffffffffffffffffffffffffffffffffffffff16036107c05760006040517f64a0ae920000000000000000000000000000000000000000000000000000000081526004016107b7919061244c565b60405180910390fd5b60006107d483836107cf6116dd565b6116f7565b90508373ffffffffffffffffffffffffffffffffffffffff168173ffffffffffffffffffffffffffffffffffffffff161461084a578382826040517f64283d7b00000000000000000000000000000000000000000000000000000000815260040161084193929190612f35565b60405180910390fd5b50505050565b60606040518060400160405280600b81526020017f68656c6c6f20776f726c64000000000000000000000000000000000000000000815250905090565b6108a883838360405180602001604052806000815250611436565b505050565b600760009054906101000a900473ffffffffffffffffffffffffffffffffffffffff1681565b60606108fd826040516020016108e99190612fb4565b604051602081830303815290604052610cc5565b9050919050565b600061090f82611618565b9050919050565b60606000805b60085481101561096f576006600082815260200190815260200160002060040160009054906101000a900460ff161561095e57818061095a90612eed565b9250505b8061096890612eed565b905061091c565b5060008167ffffffffffffffff81111561098c5761098b6127c3565b5b6040519080825280602002602001820160405280156109c557816020015b6109b26121f6565b8152602001906001900390816109aa5790505b5090506000805b600854811015610bdb576006600082815260200190815260200160002060040160009054906101000a900460ff1615610bca576006600082815260200190815260200160002060000154838381518110610a2957610a28612fcf565b5b60200260200101516000018181525050600660008281526020019081526020016000206001018054610a5a90612c19565b80601f0160208091040260200160405190810160405280929190818152602001828054610a8690612c19565b8015610ad35780601f10610aa857610100808354040283529160200191610ad3565b820191906000526020600020905b815481529060010190602001808311610ab657829003601f168201915b5050505050838381518110610aeb57610aea612fcf565b5b6020026020010151602001819052506006600082815260200190815260200160002060020154838381518110610b2457610b23612fcf565b5b602002602001015160400181815250506006600082815260200190815260200160002060030154838381518110610b5e57610b5d612fcf565b5b602002602001015160600181815250506006600082815260200190815260200160002060040160009054906101000a900460ff16838381518110610ba557610ba4612fcf565b5b602002602001015160800190151590811515815250508180610bc690612eed565b9250505b80610bd490612eed565b90506109cc565b5081935050505090565b600960009054906101000a900473ffffffffffffffffffffffffffffffffffffffff1681565b60008073ffffffffffffffffffffffffffffffffffffffff168273ffffffffffffffffffffffffffffffffffffffff1603610c7e5760006040517f89c62b64000000000000000000000000000000000000000000000000000000008152600401610c75919061244c565b60405180910390fd5b600360008373ffffffffffffffffffffffffffffffffffffffff1673ffffffffffffffffffffffffffffffffffffffff168152602001908152602001600020549050919050565b606060006040518060400160405280601081526020017f30313233343536373839616263646566000000000000000000000000000000008152509050600060028451610d119190612ffe565b6002610d1d9190613040565b67ffffffffffffffff811115610d3657610d356127c3565b5b6040519080825280601f01601f191660200182016040528015610d685781602001600182028036833780820191505090505b5090507f300000000000000000000000000000000000000000000000000000000000000081600081518110610da057610d9f612fcf565b5b60200101907effffffffffffffffffffffffffffffffffffffffffffffffffffffffffffff1916908160001a9053507f780000000000000000000000000000000000000000000000000000000000000081600181518110610e0457610e03612fcf565b5b60200101907effffffffffffffffffffffffffffffffffffffffffffffffffffffffffffff1916908160001a90535060005b8451811015610fb457826004868381518110610e5557610e54612fcf565b5b602001015160f81c60f81b7effffffffffffffffffffffffffffffffffffffffffffffffffffffffffffff1916901c60f81c60ff1681518110610e9b57610e9a612fcf565b5b602001015160f81c60f81b82600283610eb49190612ffe565b6002610ec09190613040565b81518110610ed157610ed0612fcf565b5b60200101907effffffffffffffffffffffffffffffffffffffffffffffffffffffffffffff1916908160001a90535082600f60f81b868381518110610f1957610f18612fcf565b5b602001015160f81c60f81b1660f81c60ff1681518110610f3c57610f3b612fcf565b5b602001015160f81c60f81b82600283610f559190612ffe565b6003610f619190613040565b81518110610f7257610f71612fcf565b5b60200101907effffffffffffffffffffffffffffffffffffffffffffffffffffffffffffff1916908160001a9053508080610fac90612eed565b915050610e36565b508092505050919050565b60016006600084815260200190815260200160002060040160006101000a81548160ff0219169083151502179055508060066000848152602001908152602001600020600301819055504260066000848152602001908152602001600020600201819055505050565b60606001805461103790612c19565b80601f016020809104026020016040519081016040528092919081815260200182805461106390612c19565b80156110b05780601f10611085576101008083540402835291602001916110b0565b820191906000526020600020905b81548152906001019060200180831161109357829003601f168201915b5050505050905090565b60606000805b60085481101561115257836040516020016110db91906130b0565b6040516020818303038152906040528051906020012060066000838152602001908152602001600020600101604051602001611117919061314a565b604051602081830303815290604052805190602001200361114157818061113d90612eed565b9250505b8061114b90612eed565b90506110c0565b5060008167ffffffffffffffff81111561116f5761116e6127c3565b5b6040519080825280602002602001820160405280156111a857816020015b6111956121f6565b81526020019060019003908161118d5790505b5090506000805b60085481101561134957856040516020016111ca91906130b0565b6040516020818303038152906040528051906020012060066000838152602001908152602001600020600101604051602001611206919061314a565b6040516020818303038152906040528051906020012003611338578083838151811061123557611234612fcf565b5b602002602001015160000181815250508583838151811061125957611258612fcf565b5b602002602001015160200181905250600660008281526020019081526020016000206002015483838151811061129257611291612fcf565b5b6020026020010151604001818152505060066000828152602001908152602001600020600301548383815181106112cc576112cb612fcf565b5b602002602001015160600181815250506006600082815260200190815260200160002060040160009054906101000a900460ff1683838151811061131357611312612fcf565b5b60200260200101516080019015159081151581525050818061133490612eed565b9250505b8061134290612eed565b90506111af565b50819350505050919050565b6113676113606116dd565b8383611911565b5050565b600660205280600052604060002060009150905080600001549080600101805461139490612c19565b80601f01602080910402602001604051908101604052809291908181526020018280546113c090612c19565b801561140d5780601f106113e25761010080835404028352916020019161140d565b820191906000526020600020905b8154815290600101906020018083116113f057829003601f168201915b5050505050908060020154908060030154908060040160009054906101000a900460ff16905085565b61144184848461074e565b61144d84848484611a80565b50505050565b606061145e82611618565b506000611469611c37565b9050600081511161148957604051806020016040528060008152506114b4565b8061149384611c4e565b6040516020016114a4929190613161565b6040516020818303038152906040525b915050919050565b60006006600083815260200190815260200160002060040160006101000a81548160ff0219169083151502179055506114f4336108d3565b6006600083815260200190815260200160002060010190816115169190612dec565b5050565b6000600560008473ffffffffffffffffffffffffffffffffffffffff1673ffffffffffffffffffffffffffffffffffffffff16815260200190815260200160002060008373ffffffffffffffffffffffffffffffffffffffff1673ffffffffffffffffffffffffffffffffffffffff16815260200190815260200160002060009054906101000a900460ff16905092915050565b60007f01ffc9a7000000000000000000000000000000000000000000000000000000007bffffffffffffffffffffffffffffffffffffffffffffffffffffffff1916827bffffffffffffffffffffffffffffffffffffffffffffffffffffffff1916149050919050565b60008061162483611d1c565b9050600073ffffffffffffffffffffffffffffffffffffffff168173ffffffffffffffffffffffffffffffffffffffff160361169757826040517f7e27328900000000000000000000000000000000000000000000000000000000815260040161168e919061279e565b60405180910390fd5b80915050919050565b60006004600083815260200190815260200160002060009054906101000a900473ffffffffffffffffffffffffffffffffffffffff169050919050565b600033905090565b6116f28383836001611d59565b505050565b60008061170384611d1c565b9050600073ffffffffffffffffffffffffffffffffffffffff168373ffffffffffffffffffffffffffffffffffffffff161461174557611744818486611f1e565b5b600073ffffffffffffffffffffffffffffffffffffffff168173ffffffffffffffffffffffffffffffffffffffff16146117d657611787600085600080611d59565b6001600360008373ffffffffffffffffffffffffffffffffffffffff1673ffffffffffffffffffffffffffffffffffffffff168152602001908152602001600020600082825403925050819055505b600073ffffffffffffffffffffffffffffffffffffffff168573ffffffffffffffffffffffffffffffffffffffff1614611859576001600360008773ffffffffffffffffffffffffffffffffffffffff1673ffffffffffffffffffffffffffffffffffffffff168152602001908152602001600020600082825401925050819055505b846002600086815260200190815260200160002060006101000a81548173ffffffffffffffffffffffffffffffffffffffff021916908373ffffffffffffffffffffffffffffffffffffffff160217905550838573ffffffffffffffffffffffffffffffffffffffff168273ffffffffffffffffffffffffffffffffffffffff167fddf252ad1be2c89b69c2b068fc378daa952ba7f163c4a11628f55a4df523b3ef60405160405180910390a4809150509392505050565b600073ffffffffffffffffffffffffffffffffffffffff168273ffffffffffffffffffffffffffffffffffffffff160361198257816040517f5b08ba18000000000000000000000000000000000000000000000000000000008152600401611979919061244c565b60405180910390fd5b80600560008573ffffffffffffffffffffffffffffffffffffffff1673ffffffffffffffffffffffffffffffffffffffff16815260200190815260200160002060008473ffffffffffffffffffffffffffffffffffffffff1673ffffffffffffffffffffffffffffffffffffffff16815260200190815260200160002060006101000a81548160ff0219169083151502179055508173ffffffffffffffffffffffffffffffffffffffff168373ffffffffffffffffffffffffffffffffffffffff167f17307eab39ab6107e8899845ad3d59bd9653f200f220920489ca2b5937696c3183604051611a7391906122db565b60405180910390a3505050565b60008373ffffffffffffffffffffffffffffffffffffffff163b1115611c31578273ffffffffffffffffffffffffffffffffffffffff1663150b7a02611ac46116dd565b8685856040518563ffffffff1660e01b8152600401611ae694939291906131da565b6020604051808303816000875af1925050508015611b2257506040513d601f19601f82011682018060405250810190611b1f919061323b565b60015b611ba6573d8060008114611b52576040519150601f19603f3d011682016040523d82523d6000602084013e611b57565b606091505b506000815103611b9e57836040517f64a0ae92000000000000000000000000000000000000000000000000000000008152600401611b95919061244c565b60405180910390fd5b805181602001fd5b63150b7a0260e01b7bffffffffffffffffffffffffffffffffffffffffffffffffffffffff1916817bffffffffffffffffffffffffffffffffffffffffffffffffffffffff191614611c2f57836040517f64a0ae92000000000000000000000000000000000000000000000000000000008152600401611c26919061244c565b60405180910390fd5b505b50505050565b606060405180602001604052806000815250905090565b606060006001611c5d84611fe2565b01905060008167ffffffffffffffff811115611c7c57611c7b6127c3565b5b6040519080825280601f01601f191660200182016040528015611cae5781602001600182028036833780820191505090505b509050600082602001820190505b600115611d11578080600190039150507f3031323334353637383961626364656600000000000000000000000000000000600a86061a8153600a8581611d0557611d04613268565b5b04945060008503611cbc575b819350505050919050565b60006002600083815260200190815260200160002060009054906101000a900473ffffffffffffffffffffffffffffffffffffffff169050919050565b8080611d925750600073ffffffffffffffffffffffffffffffffffffffff168273ffffffffffffffffffffffffffffffffffffffff1614155b15611ec6576000611da284611618565b9050600073ffffffffffffffffffffffffffffffffffffffff168373ffffffffffffffffffffffffffffffffffffffff1614158015611e0d57508273ffffffffffffffffffffffffffffffffffffffff168173ffffffffffffffffffffffffffffffffffffffff1614155b8015611e205750611e1e818461151a565b155b15611e6257826040517fa9fbf51f000000000000000000000000000000000000000000000000000000008152600401611e59919061244c565b60405180910390fd5b8115611ec457838573ffffffffffffffffffffffffffffffffffffffff168273ffffffffffffffffffffffffffffffffffffffff167f8c5be1e5ebec7d5bd14f71427d1e84f3dd0314c0f7b2291e5b200ac8c7c3b92560405160405180910390a45b505b836004600085815260200190815260200160002060006101000a81548173ffffffffffffffffffffffffffffffffffffffff021916908373ffffffffffffffffffffffffffffffffffffffff16021790555050505050565b611f29838383612135565b611fdd57600073ffffffffffffffffffffffffffffffffffffffff168373ffffffffffffffffffffffffffffffffffffffff1603611f9e57806040517f7e273289000000000000000000000000000000000000000000000000000000008152600401611f95919061279e565b60405180910390fd5b81816040517f177e802f000000000000000000000000000000000000000000000000000000008152600401611fd4929190613297565b60405180910390fd5b505050565b600080600090507a184f03e93ff9f4daa797ed6e38ed64bf6a1f0100000000000000008310612040577a184f03e93ff9f4daa797ed6e38ed64bf6a1f010000000000000000838161203657612035613268565b5b0492506040810190505b6d04ee2d6d415b85acef8100000000831061207d576d04ee2d6d415b85acef8100000000838161207357612072613268565b5b0492506020810190505b662386f26fc1000083106120ac57662386f26fc1000083816120a2576120a1613268565b5b0492506010810190505b6305f5e10083106120d5576305f5e10083816120cb576120ca613268565b5b0492506008810190505b61271083106120fa5761271083816120f0576120ef613268565b5b0492506004810190505b6064831061211d576064838161211357612112613268565b5b0492506002810190505b600a831061212c576001810190505b80915050919050565b60008073ffffffffffffffffffffffffffffffffffffffff168373ffffffffffffffffffffffffffffffffffffffff16141580156121ed57508273ffffffffffffffffffffffffffffffffffffffff168473ffffffffffffffffffffffffffffffffffffffff1614806121ae57506121ad848461151a565b5b806121ec57508273ffffffffffffffffffffffffffffffffffffffff166121d4836116a0565b73ffffffffffffffffffffffffffffffffffffffff16145b5b90509392505050565b6040518060a00160405280600081526020016060815260200160008152602001600081526020016000151581525090565b6000604051905090565b600080fd5b600080fd5b60007fffffffff0000000000000000000000000000000000000000000000000000000082169050919050565b6122708161223b565b811461227b57600080fd5b50565b60008135905061228d81612267565b92915050565b6000602082840312156122a9576122a8612231565b5b60006122b78482850161227e565b91505092915050565b60008115159050919050565b6122d5816122c0565b82525050565b60006020820190506122f060008301846122cc565b92915050565b600081519050919050565b600082825260208201905092915050565b60005b83811015612330578082015181840152602081019050612315565b60008484015250505050565b6000601f19601f8301169050919050565b6000612358826122f6565b6123628185612301565b9350612372818560208601612312565b61237b8161233c565b840191505092915050565b600060208201905081810360008301526123a0818461234d565b905092915050565b6000819050919050565b6123bb816123a8565b81146123c657600080fd5b50565b6000813590506123d8816123b2565b92915050565b6000602082840312156123f4576123f3612231565b5b6000612402848285016123c9565b91505092915050565b600073ffffffffffffffffffffffffffffffffffffffff82169050919050565b60006124368261240b565b9050919050565b6124468161242b565b82525050565b6000602082019050612461600083018461243d565b92915050565b6124708161242b565b811461247b57600080fd5b50565b60008135905061248d81612467565b92915050565b600080604083850312156124aa576124a9612231565b5b60006124b88582860161247e565b92505060206124c9858286016123c9565b9150509250929050565b6000806000606084860312156124ec576124eb612231565b5b60006124fa8682870161247e565b935050602061250b8682870161247e565b925050604061251c868287016123c9565b9150509250925092565b60006020828403121561253c5761253b612231565b5b600061254a8482850161247e565b91505092915050565b600081519050919050565b600082825260208201905092915050565b6000819050602082019050919050565b612588816123a8565b82525050565b600082825260208201905092915050565b60006125aa826122f6565b6125b4818561258e565b93506125c4818560208601612312565b6125cd8161233c565b840191505092915050565b6125e1816122c0565b82525050565b600060a0830160008301516125ff600086018261257f565b5060208301518482036020860152612617828261259f565b915050604083015161262c604086018261257f565b50606083015161263f606086018261257f565b50608083015161265260808601826125d8565b508091505092915050565b600061266983836125e7565b905092915050565b6000602082019050919050565b600061268982612553565b612693818561255e565b9350836020820285016126a58561256f565b8060005b858110156126e157848403895281516126c2858261265d565b94506126cd83612671565b925060208a019950506001810190506126a9565b50829750879550505050505092915050565b6000602082019050818103600083015261270d818461267e565b905092915050565b6000819050919050565b600061273a6127356127308461240b565b612715565b61240b565b9050919050565b600061274c8261271f565b9050919050565b600061275e82612741565b9050919050565b61276e81612753565b82525050565b60006020820190506127896000830184612765565b92915050565b612798816123a8565b82525050565b60006020820190506127b3600083018461278f565b92915050565b600080fd5b600080fd5b7f4e487b7100000000000000000000000000000000000000000000000000000000600052604160045260246000fd5b6127fb8261233c565b810181811067ffffffffffffffff8211171561281a576128196127c3565b5b80604052505050565b600061282d612227565b905061283982826127f2565b919050565b600067ffffffffffffffff821115612859576128586127c3565b5b6128628261233c565b9050602081019050919050565b82818337600083830152505050565b600061289161288c8461283e565b612823565b9050828152602081018484840111156128ad576128ac6127be565b5b6128b884828561286f565b509392505050565b600082601f8301126128d5576128d46127b9565b5b81356128e584826020860161287e565b91505092915050565b60006020828403121561290457612903612231565b5b600082013567ffffffffffffffff81111561292257612921612236565b5b61292e848285016128c0565b91505092915050565b6000806040838503121561294e5761294d612231565b5b600061295c858286016123c9565b925050602061296d858286016123c9565b9150509250929050565b600067ffffffffffffffff821115612992576129916127c3565b5b61299b8261233c565b9050602081019050919050565b60006129bb6129b684612977565b612823565b9050828152602081018484840111156129d7576129d66127be565b5b6129e284828561286f565b509392505050565b600082601f8301126129ff576129fe6127b9565b5b8135612a0f8482602086016129a8565b91505092915050565b600060208284031215612a2e57612a2d612231565b5b600082013567ffffffffffffffff811115612a4c57612a4b612236565b5b612a58848285016129ea565b91505092915050565b612a6a816122c0565b8114612a7557600080fd5b50565b600081359050612a8781612a61565b92915050565b60008060408385031215612aa457612aa3612231565b5b6000612ab28582860161247e565b9250506020612ac385828601612a78565b9150509250929050565b600060a082019050612ae2600083018861278f565b8181036020830152612af4818761234d565b9050612b03604083018661278f565b612b10606083018561278f565b612b1d60808301846122cc565b9695505050505050565b60008060008060808587031215612b4157612b40612231565b5b6000612b4f8782880161247e565b9450506020612b608782880161247e565b9350506040612b71878288016123c9565b925050606085013567ffffffffffffffff811115612b9257612b91612236565b5b612b9e878288016128c0565b91505092959194509250565b60008060408385031215612bc157612bc0612231565b5b6000612bcf8582860161247e565b9250506020612be08582860161247e565b9150509250929050565b7f4e487b7100000000000000000000000000000000000000000000000000000000600052602260045260246000fd5b60006002820490506001821680612c3157607f821691505b602082108103612c4457612c43612bea565b5b50919050565b60008190508160005260206000209050919050565b60006020601f8301049050919050565b600082821b905092915050565b600060088302612cac7fffffffffffffffffffffffffffffffffffffffffffffffffffffffffffffffff82612c6f565b612cb68683612c6f565b95508019841693508086168417925050509392505050565b6000612ce9612ce4612cdf846123a8565b612715565b6123a8565b9050919050565b6000819050919050565b612d0383612cce565b612d17612d0f82612cf0565b848454612c7c565b825550505050565b600090565b612d2c612d1f565b612d37818484612cfa565b505050565b5b81811015612d5b57612d50600082612d24565b600181019050612d3d565b5050565b601f821115612da057612d7181612c4a565b612d7a84612c5f565b81016020851015612d89578190505b612d9d612d9585612c5f565b830182612d3c565b50505b505050565b600082821c905092915050565b6000612dc360001984600802612da5565b1980831691505092915050565b6000612ddc8383612db2565b9150826002028217905092915050565b612df5826122f6565b67ffffffffffffffff811115612e0e57612e0d6127c3565b5b612e188254612c19565b612e23828285612d5f565b600060209050601f831160018114612e565760008415612e44578287015190505b612e4e8582612dd0565b865550612eb6565b601f198416612e6486612c4a565b60005b82811015612e8c57848901518255600182019150602085019450602081019050612e67565b86831015612ea95784890151612ea5601f891682612db2565b8355505b6001600288020188555050505b505050505050565b7f4e487b7100000000000000000000000000000000000000000000000000000000600052601160045260246000fd5b6000612ef8826123a8565b91507fffffffffffffffffffffffffffffffffffffffffffffffffffffffffffffffff8203612f2a57612f29612ebe565b5b600182019050919050565b6000606082019050612f4a600083018661243d565b612f57602083018561278f565b612f64604083018461243d565b949350505050565b60008160601b9050919050565b6000612f8482612f6c565b9050919050565b6000612f9682612f79565b9050919050565b612fae612fa98261242b565b612f8b565b82525050565b6000612fc08284612f9d565b60148201915081905092915050565b7f4e487b7100000000000000000000000000000000000000000000000000000000600052603260045260246000fd5b6000613009826123a8565b9150613014836123a8565b9250828202613022816123a8565b9150828204841483151761303957613038612ebe565b5b5092915050565b600061304b826123a8565b9150613056836123a8565b925082820190508082111561306e5761306d612ebe565b5b92915050565b600081905092915050565b600061308a826122f6565b6130948185613074565b93506130a4818560208601612312565b80840191505092915050565b60006130bc828461307f565b915081905092915050565b600081546130d481612c19565b6130de8186613074565b945060018216600081146130f9576001811461310e57613141565b60ff1983168652811515820286019350613141565b61311785612c4a565b60005b838110156131395781548189015260018201915060208101905061311a565b838801955050505b50505092915050565b600061315682846130c7565b915081905092915050565b600061316d828561307f565b9150613179828461307f565b91508190509392505050565b600081519050919050565b600082825260208201905092915050565b60006131ac82613185565b6131b68185613190565b93506131c6818560208601612312565b6131cf8161233c565b840191505092915050565b60006080820190506131ef600083018761243d565b6131fc602083018661243d565b613209604083018561278f565b818103606083015261321b81846131a1565b905095945050505050565b60008151905061323581612267565b92915050565b60006020828403121561325157613250612231565b5b600061325f84828501613226565b91505092915050565b7f4e487b7100000000000000000000000000000000000000000000000000000000600052601260045260246000fd5b60006040820190506132ac600083018561243d565b6132b9602083018461278f565b939250505056fea26469706673582212200879a58fa17f699185d3e550d772cb72ab3e44fd91810d2ca8be1747fd26dfc664736f6c6343000814003360806040523480156200001157600080fd5b50604051620015af380380620015af8339818101604052810190620000379190620001fa565b818181600390816200004a9190620004ca565b5080600490816200005c9190620004ca565b5050505050620005b1565b6000604051905090565b600080fd5b600080fd5b600080fd5b600080fd5b6000601f19601f8301169050919050565b7f4e487b7100000000000000000000000000000000000000000000000000000000600052604160045260246000fd5b620000d08262000085565b810181811067ffffffffffffffff82111715620000f257620000f162000096565b5b80604052505050565b60006200010762000067565b9050620001158282620000c5565b919050565b600067ffffffffffffffff82111562000138576200013762000096565b5b620001438262000085565b9050602081019050919050565b60005b838110156200017057808201518184015260208101905062000153565b60008484015250505050565b6000620001936200018d846200011a565b620000fb565b905082815260208101848484011115620001b257620001b162000080565b5b620001bf84828562000150565b509392505050565b600082601f830112620001df57620001de6200007b565b5b8151620001f18482602086016200017c565b91505092915050565b6000806040838503121562000214576200021362000071565b5b600083015167ffffffffffffffff81111562000235576200023462000076565b5b6200024385828601620001c7565b925050602083015167ffffffffffffffff81111562000267576200026662000076565b5b6200027585828601620001c7565b9150509250929050565b600081519050919050565b7f4e487b7100000000000000000000000000000000000000000000000000000000600052602260045260246000fd5b60006002820490506001821680620002d257607f821691505b602082108103620002e857620002e76200028a565b5b50919050565b60008190508160005260206000209050919050565b60006020601f8301049050919050565b600082821b905092915050565b600060088302620003527fffffffffffffffffffffffffffffffffffffffffffffffffffffffffffffffff8262000313565b6200035e868362000313565b95508019841693508086168417925050509392505050565b6000819050919050565b6000819050919050565b6000620003ab620003a56200039f8462000376565b62000380565b62000376565b9050919050565b6000819050919050565b620003c7836200038a565b620003df620003d682620003b2565b84845462000320565b825550505050565b600090565b620003f6620003e7565b62000403818484620003bc565b505050565b5b818110156200042b576200041f600082620003ec565b60018101905062000409565b5050565b601f8211156200047a576200044481620002ee565b6200044f8462000303565b810160208510156200045f578190505b620004776200046e8562000303565b83018262000408565b50505b505050565b600082821c905092915050565b60006200049f600019846008026200047f565b1980831691505092915050565b6000620004ba83836200048c565b9150826002028217905092915050565b620004d5826200027f565b67ffffffffffffffff811115620004f157620004f062000096565b5b620004fd8254620002b9565b6200050a8282856200042f565b600060209050601f8311600181146200054257600084156200052d578287015190505b620005398582620004ac565b865550620005a9565b601f1984166200055286620002ee565b60005b828110156200057c5784890151825560018201915060208501945060208101905062000555565b868310156200059c578489015162000598601f8916826200048c565b8355505b6001600288020188555050505b505050505050565b610fee80620005c16000396000f3fe6080604052600436106100915760003560e01c806370a082311161005957806370a08231146101915780638fd546cb146101ce57806395d89b41146101ea578063a9059cbb14610215578063dd62ed3e1461025257610091565b806306fdde0314610096578063095ea7b3146100c157806318160ddd146100fe57806323b872dd14610129578063313ce56714610166575b600080fd5b3480156100a257600080fd5b506100ab61028f565b6040516100b89190610bd3565b60405180910390f35b3480156100cd57600080fd5b506100e860048036038101906100e39190610c8e565b610321565b6040516100f59190610ce9565b60405180910390f35b34801561010a57600080fd5b50610113610344565b6040516101209190610d13565b60405180910390f35b34801561013557600080fd5b50610150600480360381019061014b9190610d2e565b61034e565b60405161015d9190610ce9565b60405180910390f35b34801561017257600080fd5b5061017b61037d565b6040516101889190610d9d565b60405180910390f35b34801561019d57600080fd5b506101b860048036038101906101b39190610db8565b610386565b6040516101c59190610d13565b60405180910390f35b6101e860048036038101906101e39190610de5565b6103ce565b005b3480156101f657600080fd5b506101ff6103e7565b60405161020c9190610bd3565b60405180910390f35b34801561022157600080fd5b5061023c60048036038101906102379190610c8e565b610479565b6040516102499190610ce9565b60405180910390f35b34801561025e57600080fd5b5061027960048036038101906102749190610e12565b61049c565b6040516102869190610d13565b60405180910390f35b60606003805461029e90610e81565b80601f01602080910402602001604051908101604052809291908181526020018280546102ca90610e81565b80156103175780601f106102ec57610100808354040283529160200191610317565b820191906000526020600020905b8154815290600101906020018083116102fa57829003601f168201915b5050505050905090565b60008061032c610523565b905061033981858561052b565b600191505092915050565b6000600254905090565b600080610359610523565b905061036685828561053d565b6103718585856105d1565b60019150509392505050565b60006012905090565b60008060008373ffffffffffffffffffffffffffffffffffffffff1673ffffffffffffffffffffffffffffffffffffffff168152602001908152602001600020549050919050565b6103e4338260646103df9190610ee1565b6106c5565b50565b6060600480546103f690610e81565b80601f016020809104026020016040519081016040528092919081815260200182805461042290610e81565b801561046f5780601f106104445761010080835404028352916020019161046f565b820191906000526020600020905b81548152906001019060200180831161045257829003601f168201915b5050505050905090565b600080610484610523565b90506104918185856105d1565b600191505092915050565b6000600160008473ffffffffffffffffffffffffffffffffffffffff1673ffffffffffffffffffffffffffffffffffffffff16815260200190815260200160002060008373ffffffffffffffffffffffffffffffffffffffff1673ffffffffffffffffffffffffffffffffffffffff16815260200190815260200160002054905092915050565b600033905090565b6105388383836001610747565b505050565b6000610549848461049c565b90507fffffffffffffffffffffffffffffffffffffffffffffffffffffffffffffffff81146105cb57818110156105bb578281836040517ffb8f41b20000000000000000000000000000000000000000000000000000000081526004016105b293929190610f32565b60405180910390fd5b6105ca84848484036000610747565b5b50505050565b600073ffffffffffffffffffffffffffffffffffffffff168373ffffffffffffffffffffffffffffffffffffffff16036106435760006040517f96c6fd1e00000000000000000000000000000000000000000000000000000000815260040161063a9190610f69565b60405180910390fd5b600073ffffffffffffffffffffffffffffffffffffffff168273ffffffffffffffffffffffffffffffffffffffff16036106b55760006040517fec442f050000000000000000000000000000000000000000000000000000000081526004016106ac9190610f69565b60405180910390fd5b6106c083838361091e565b505050565b600073ffffffffffffffffffffffffffffffffffffffff168273ffffffffffffffffffffffffffffffffffffffff16036107375760006040517fec442f0500000000000000000000000000000000000000000000000000000000815260040161072e9190610f69565b60405180910390fd5b6107436000838361091e565b5050565b600073ffffffffffffffffffffffffffffffffffffffff168473ffffffffffffffffffffffffffffffffffffffff16036107b95760006040517fe602df050000000000000000000000000000000000000000000000000000000081526004016107b09190610f69565b60405180910390fd5b600073ffffffffffffffffffffffffffffffffffffffff168373ffffffffffffffffffffffffffffffffffffffff160361082b5760006040517f94280d620000000000000000000000000000000000000000000000000000000081526004016108229190610f69565b60405180910390fd5b81600160008673ffffffffffffffffffffffffffffffffffffffff1673ffffffffffffffffffffffffffffffffffffffff16815260200190815260200160002060008573ffffffffffffffffffffffffffffffffffffffff1673ffffffffffffffffffffffffffffffffffffffff168152602001908152602001600020819055508015610918578273ffffffffffffffffffffffffffffffffffffffff168473ffffffffffffffffffffffffffffffffffffffff167f8c5be1e5ebec7d5bd14f71427d1e84f3dd0314c0f7b2291e5b200ac8c7c3b9258460405161090f9190610d13565b60405180910390a35b50505050565b600073ffffffffffffffffffffffffffffffffffffffff168373ffffffffffffffffffffffffffffffffffffffff16036109705780600260008282546109649190610f84565b92505081905550610a43565b60008060008573ffffffffffffffffffffffffffffffffffffffff1673ffffffffffffffffffffffffffffffffffffffff168152602001908152602001600020549050818110156109fc578381836040517fe450d38c0000000000000000000000000000000000000000000000000000000081526004016109f393929190610f32565b60405180910390fd5b8181036000808673ffffffffffffffffffffffffffffffffffffffff1673ffffffffffffffffffffffffffffffffffffffff16815260200190815260200160002081905550505b600073ffffffffffffffffffffffffffffffffffffffff168273ffffffffffffffffffffffffffffffffffffffff1603610a8c5780600260008282540392505081905550610ad9565b806000808473ffffffffffffffffffffffffffffffffffffffff1673ffffffffffffffffffffffffffffffffffffffff168152602001908152602001600020600082825401925050819055505b8173ffffffffffffffffffffffffffffffffffffffff168373ffffffffffffffffffffffffffffffffffffffff167fddf252ad1be2c89b69c2b068fc378daa952ba7f163c4a11628f55a4df523b3ef83604051610b369190610d13565b60405180910390a3505050565b600081519050919050565b600082825260208201905092915050565b60005b83811015610b7d578082015181840152602081019050610b62565b60008484015250505050565b6000601f19601f8301169050919050565b6000610ba582610b43565b610baf8185610b4e565b9350610bbf818560208601610b5f565b610bc881610b89565b840191505092915050565b60006020820190508181036000830152610bed8184610b9a565b905092915050565b600080fd5b600073ffffffffffffffffffffffffffffffffffffffff82169050919050565b6000610c2582610bfa565b9050919050565b610c3581610c1a565b8114610c4057600080fd5b50565b600081359050610c5281610c2c565b92915050565b6000819050919050565b610c6b81610c58565b8114610c7657600080fd5b50565b600081359050610c8881610c62565b92915050565b60008060408385031215610ca557610ca4610bf5565b5b6000610cb385828601610c43565b9250506020610cc485828601610c79565b9150509250929050565b60008115159050919050565b610ce381610cce565b82525050565b6000602082019050610cfe6000830184610cda565b92915050565b610d0d81610c58565b82525050565b6000602082019050610d286000830184610d04565b92915050565b600080600060608486031215610d4757610d46610bf5565b5b6000610d5586828701610c43565b9350506020610d6686828701610c43565b9250506040610d7786828701610c79565b9150509250925092565b600060ff82169050919050565b610d9781610d81565b82525050565b6000602082019050610db26000830184610d8e565b92915050565b600060208284031215610dce57610dcd610bf5565b5b6000610ddc84828501610c43565b91505092915050565b600060208284031215610dfb57610dfa610bf5565b5b6000610e0984828501610c79565b91505092915050565b60008060408385031215610e2957610e28610bf5565b5b6000610e3785828601610c43565b9250506020610e4885828601610c43565b9150509250929050565b7f4e487b7100000000000000000000000000000000000000000000000000000000600052602260045260246000fd5b60006002820490506001821680610e9957607f821691505b602082108103610eac57610eab610e52565b5b50919050565b7f4e487b7100000000000000000000000000000000000000000000000000000000600052601160045260246000fd5b6000610eec82610c58565b9150610ef783610c58565b9250828202610f0581610c58565b91508282048414831517610f1c57610f1b610eb2565b5b5092915050565b610f2c81610c1a565b82525050565b6000606082019050610f476000830186610f23565b610f546020830185610d04565b610f616040830184610d04565b949350505050565b6000602082019050610f7e6000830184610f23565b92915050565b6000610f8f82610c58565b9150610f9a83610c58565b9250828201905080821115610fb257610fb1610eb2565b5b9291505056fea264697066735822122011e572d214720f71cf36e571c57e575c689f3339eeebcda43a4ded7d25b0de4d64736f6c63430008140033",
  "linkReferences": {},
  "deployedLinkReferences": {}
}